:04000000803117280C
:100008007E14803100308600003087008B1D0D285B
:100018000E2815280B1C11281228152827009601D0
:100028000B107E100900803119287E1020008231C3
:10003800472A5E34A63400345E34A63400340034D3
:10004800A63400345E34A63400340034A6340034B8
:100058007634A63400345E34A63400340034A63432
:1000680000344F34A63400340034F23401349F3461
:10007800A63400340034F23401347634FA340034CF
:100088000034A63400349F34FA3400340034FA348F
:100098000034BD34FA3400340034A63400348D34CE
:1000A800A63400340034533400347E34A63400348B
:1000B8000034533400348D34A63400349F34FA3479
:1000C80000340034A63400349F34A63400345E343F
:1000D800A63400344F34A63400344634A6340034F1
:1000E8000034533400345934A63400344F34A63421
:1000F80000340034533400345E34A6340034003401
:10010800533400347634A63400346A34A6340034C8
:100118007E34A63400340034A63400347634FA34FD
:1001280000340034A63400349F34FA3400340034E8
:10013800FA340034BD34FA3400340034A6340034C0
:100148008D34A63400340034533400347E34A6345D
:1001580000340034533400348D34A63400349F34D2
:10016800FA3400340034A63400349F34A634003402
:100178005E34A63400344F34A63400344634A634F2
:1001880000340034533400345934A63400344F3426
:10019800A63400340034533400345E34A6340034BA
:1001A8000034533400347634A63400346A34A63428
:1001B80000347E34A63400340034A63400340034CD
:1001C8009A3402345E34A03401347E34D03400349E
:1001D8007634D03400346A34A03401347634D034E0
:1001E80000347E34D03400348D34A03401348D345E
:1001F800D03400347634D03400345E34A034013442
:100208006A34D03400347634D03400347E34A034A8
:1002180001347E34D03400347634D03400346A3437
:10022800A03401345E34A03401347634A03401346F
:100238008D34A03401348D34A03401340034A0341A
:1002480001346A34A03401346A34D0340034593467
:10025800D03400344634A03401344F34D034003420
:100268005934D03400345E34A03401345E34D03490
:1002780000347634D03400345E34A03401346A3427
:10028800D03400347634D03400347E34A034013491
:100298007E34D03400347634D03400346A34A03418
:1002A80001345E34A03401347634A03401348D3402
:1002B800A03401348D34A03401340034A034013426
:1002C8000034413403348231B0228131E8302000D7
:1002D800AA000330AB00792903302000A80097302A
:1002E800890B7429A80B7429003201302000AA0256
:1002F8000030AB3B2A0A031D85292B0A031D8529DB
:10030800862970298231A3228131E8302000AC008F
:100318000330AD00982903302000A8009730890BDE
:100328009329A80B9329003201302000AC02003039
:10033800AD3B2C0A031DA4292D0A031DA429A529B8
:100348008F29270096010B10630002302000A900B6
:100358000430A800BA30890BAF29A80BAF29A90B24
:10036800AF29000067290800FD007D08031DBD298D
:10037800BE29D7297708FA007608F900CA29033078
:10038800F8009830890BC629F80BC6290130F90204
:100398000030FA3B790A031DD5297A0A031DD529AD
:1003A800D629C329FF297D0820009B007D08F80075
:1003B8000130F836890BDD297808250091000C30CA
:1003C80093007708FC007608FB00F1290330F80059
:1003D8009830890BED29F80BED290130FB0200302C
:1003E800FC3B7B0A031DFC297C0A031DFC29FD2913
:1003F800EA292500930108002000A601A7013C2A4C
:100408002708F1002608F0000330F2000030F3005E
:10041800823167228231700820002007A400710809
:10042800213DA50001302407840025080318013E5A
:100438008500003FF600013FF7002708F100260875
:10044800F0000330F2000030F3008231672282317D
:1004580020002008700784002108713D85000008ED
:100468008131B821823101302000A6070030A73D34
:1004780023082702031D422A22082602031C452AB4
:10048800462A042A080082318622823121000D146E
:100498008D140D1523000D108D100D1121009513CD
:1004A80024000D148231BD22823182302000AE003A
:1004B800DD30890B5D2AAE0B5D2A00328131672160
:1004C800823180311728F401F501701C6C2A6D2ADD
:1004D800712A7208F4077308F53D0130F235F30DFF
:1004E800890B722A0130F136F00C890B772A7008D3
:1004F8007104031D802A812A692A7508F10074088D
:10050800F00008007030210099001A1C8C2A8D2AEE
:10051800892A8E1255303C008F00AA308F000F10A8
:100528000C303D00A50055303C008F00AA308F00EC
:100538000F1423008E01063020009C000800E630CE
:100548002000A0008030A1002B30A2000030A300C2
:1005580082310022823108001D302000A000803046
:10056800A1004330A2000030A30082310022823172
:0E05780008002700151496018B158B1708003C
:020000040001F9
:04000E00C40FFF1EFE
:00000001FF
